{
  "abi": [
    {
      "inputs": [],
      "stateMutability": "nonpayable",
      "type": "constructor"
    },
    {
      "anonymous": false,
      "inputs": [
        {
          "indexed": true,
          "internalType": "uint256",
          "name": "tokenId",
          "type": "uint256"
        },
        {
          "indexed": false,
          "internalType": "address",
          "name": "sender",
          "type": "address"
        },
        {
          "indexed": false,
          "internalType": "address",
          "name": "recipient",
          "type": "address"
        },
        {
          "indexed": false,
          "internalType": "bool",
          "name": "claimed",
          "type": "bool"
        }
      ],
      "name": "AirdropItemEvent",
      "type": "event"
    },
    {
      "anonymous": false,
      "inputs": [
        {
          "indexed": true,
          "internalType": "address",
          "name": "owner",
          "type": "address"
        },
        {
          "indexed": true,
          "internalType": "address",
          "name": "approved",
          "type": "address"
        },
        {
          "indexed": true,
          "internalType": "uint256",
          "name": "tokenId",
          "type": "uint256"
        }
      ],
      "name": "Approval",
      "type": "event"
    },
    {
      "anonymous": false,
      "inputs": [
        {
          "indexed": true,
          "internalType": "address",
          "name": "owner",
          "type": "address"
        },
        {
          "indexed": true,
          "internalType": "address",
          "name": "operator",
          "type": "address"
        },
        {
          "indexed": false,
          "internalType": "bool",
          "name": "approved",
          "type": "bool"
        }
      ],
      "name": "ApprovalForAll",
      "type": "event"
    },
    {
      "anonymous": false,
      "inputs": [
        {
          "indexed": true,
          "internalType": "address",
          "name": "from",
          "type": "address"
        },
        {
          "indexed": true,
          "internalType": "address",
          "name": "to",
          "type": "address"
        },
        {
          "indexed": true,
          "internalType": "uint256",
          "name": "tokenId",
          "type": "uint256"
        }
      ],
      "name": "Transfer",
      "type": "event"
    },
    {
      "inputs": [
        {
          "internalType": "address",
          "name": "to",
          "type": "address"
        },
        {
          "internalType": "uint256",
          "name": "tokenId",
          "type": "uint256"
        }
      ],
      "name": "approve",
      "outputs": [],
      "stateMutability": "nonpayable",
      "type": "function"
    },
    {
      "inputs": [
        {
          "internalType": "address",
          "name": "owner",
          "type": "address"
        }
      ],
      "name": "balanceOf",
      "outputs": [
        {
          "internalType": "uint256",
          "name": "",
          "type": "uint256"
        }
      ],
      "stateMutability": "view",
      "type": "function"
    },
    {
      "inputs": [
        {
          "internalType": "uint256",
          "name": "tokenId",
          "type": "uint256"
        }
      ],
      "name": "claimItem",
      "outputs": [],
      "stateMutability": "nonpayable",
      "type": "function"
    },
    {
      "inputs": [
        {
          "internalType": "string",
          "name": "tokenURI",
          "type": "string"
        },
        {
          "internalType": "address",
          "name": "recipient",
          "type": "address"
        }
      ],
      "name": "createToken",
      "outputs": [
        {
          "internalType": "uint256",
          "name": "",
          "type": "uint256"
        }
      ],
      "stateMutability": "nonpayable",
      "type": "function"
    },
    {
      "inputs": [],
      "name": "fetchItems",
      "outputs": [
        {
          "components": [
            {
              "internalType": "uint256",
              "name": "tokenId",
              "type": "uint256"
            },
            {
              "internalType": "address",
              "name": "sender",
              "type": "address"
            },
            {
              "internalType": "address",
              "name": "recipient",
              "type": "address"
            },
            {
              "internalType": "bool",
              "name": "claimed",
              "type": "bool"
            }
          ],
          "internalType": "struct Airdrop.AirdropItem[]",
          "name": "",
          "type": "tuple[]"
        }
      ],
      "stateMutability": "view",
      "type": "function"
    },
    {
      "inputs": [
        {
          "internalType": "uint256",
          "name": "tokenId",
          "type": "uint256"
        }
      ],
      "name": "getAirdropItem",
      "outputs": [
        {
          "components": [
            {
              "internalType": "uint256",
              "name": "tokenId",
              "type": "uint256"
            },
            {
              "internalType": "address",
              "name": "sender",
              "type": "address"
            },
            {
              "internalType": "address",
              "name": "recipient",
              "type": "address"
            },
            {
              "internalType": "bool",
              "name": "claimed",
              "type": "bool"
            }
          ],
          "internalType": "struct Airdrop.AirdropItem",
          "name": "",
          "type": "tuple"
        }
      ],
      "stateMutability": "view",
      "type": "function"
    },
    {
      "inputs": [
        {
          "internalType": "uint256",
          "name": "tokenId",
          "type": "uint256"
        }
      ],
      "name": "getApproved",
      "outputs": [
        {
          "internalType": "address",
          "name": "",
          "type": "address"
        }
      ],
      "stateMutability": "view",
      "type": "function"
    },
    {
      "inputs": [
        {
          "internalType": "address",
          "name": "owner",
          "type": "address"
        },
        {
          "internalType": "address",
          "name": "operator",
          "type": "address"
        }
      ],
      "name": "isApprovedForAll",
      "outputs": [
        {
          "internalType": "bool",
          "name": "",
          "type": "bool"
        }
      ],
      "stateMutability": "view",
      "type": "function"
    },
    {
      "inputs": [],
      "name": "name",
      "outputs": [
        {
          "internalType": "string",
          "name": "",
          "type": "string"
        }
      ],
      "stateMutability": "view",
      "type": "function"
    },
    {
      "inputs": [],
      "name": "owner",
      "outputs": [
        {
          "internalType": "address",
          "name": "",
          "type": "address"
        }
      ],
      "stateMutability": "view",
      "type": "function"
    },
    {
      "inputs": [
        {
          "internalType": "uint256",
          "name": "tokenId",
          "type": "uint256"
        }
      ],
      "name": "ownerOf",
      "outputs": [
        {
          "internalType": "address",
          "name": "",
          "type": "address"
        }
      ],
      "stateMutability": "view",
      "type": "function"
    },
    {
      "inputs": [
        {
          "internalType": "address",
          "name": "from",
          "type": "address"
        },
        {
          "internalType": "address",
          "name": "to",
          "type": "address"
        },
        {
          "internalType": "uint256",
          "name": "tokenId",
          "type": "uint256"
        }
      ],
      "name": "safeTransferFrom",
      "outputs": [],
      "stateMutability": "nonpayable",
      "type": "function"
    },
    {
      "inputs": [
        {
          "internalType": "address",
          "name": "from",
          "type": "address"
        },
        {
          "internalType": "address",
          "name": "to",
          "type": "address"
        },
        {
          "internalType": "uint256",
          "name": "tokenId",
          "type": "uint256"
        },
        {
          "internalType": "bytes",
          "name": "_data",
          "type": "bytes"
        }
      ],
      "name": "safeTransferFrom",
      "outputs": [],
      "stateMutability": "nonpayable",
      "type": "function"
    },
    {
      "inputs": [
        {
          "internalType": "address",
          "name": "operator",
          "type": "address"
        },
        {
          "internalType": "bool",
          "name": "approved",
          "type": "bool"
        }
      ],
      "name": "setApprovalForAll",
      "outputs": [],
      "stateMutability": "nonpayable",
      "type": "function"
    },
    {
      "inputs": [
        {
          "internalType": "bytes4",
          "name": "interfaceId",
          "type": "bytes4"
        }
      ],
      "name": "supportsInterface",
      "outputs": [
        {
          "internalType": "bool",
          "name": "",
          "type": "bool"
        }
      ],
      "stateMutability": "view",
      "type": "function"
    },
    {
      "inputs": [],
      "name": "symbol",
      "outputs": [
        {
          "internalType": "string",
          "name": "",
          "type": "string"
        }
      ],
      "stateMutability": "view",
      "type": "function"
    },
    {
      "inputs": [
        {
          "internalType": "uint256",
          "name": "tokenId",
          "type": "uint256"
        }
      ],
      "name": "tokenURI",
      "outputs": [
        {
          "internalType": "string",
          "name": "",
          "type": "string"
        }
      ],
      "stateMutability": "view",
      "type": "function"
    },
    {
      "inputs": [
        {
          "internalType": "address",
          "name": "from",
          "type": "address"
        },
        {
          "internalType": "address",
          "name": "to",
          "type": "address"
        },
        {
          "internalType": "uint256",
          "name": "tokenId",
          "type": "uint256"
        }
      ],
      "name": "transferFrom",
      "outputs": [],
      "stateMutability": "nonpayable",
      "type": "function"
    }
  ],
  "bytecode": {
    "object": "0x60806040523480156200001157600080fd5b50604080518082018252600e81526d41697264726f7020546f6b656e7360901b60208083019182528351808501909452600384526210511560ea1b908401528151919291620000639160009162000094565b5080516200007990600190602084019062000094565b5050600780546001600160a01b031916331790555062000177565b828054620000a2906200013a565b90600052602060002090601f016020900481019282620000c6576000855562000111565b82601f10620000e157805160ff191683800117855562000111565b8280016001018555821562000111579182015b8281111562000111578251825591602001919060010190620000f4565b506200011f92915062000123565b5090565b5b808211156200011f576000815560010162000124565b600181811c908216806200014f57607f821691505b602082108114156200017157634e487b7160e01b600052602260045260246000fd5b50919050565b611e1780620001876000396000f3fe608060405234801561001057600080fd5b50600436106101165760003560e01c80637da393e0116100a2578063a22cb46511610071578063a22cb46514610253578063ad78ba7b14610266578063b88d4fde1461027b578063c87b56dd1461028e578063e985e9c5146102a157600080fd5b80637da393e0146102125780638da5cb5b1461022557806395d89b4114610238578063a21193771461024057600080fd5b806323b872dd116100e957806323b872dd14610198578063415a7ef5146101ab57806342842e0e146101cb5780636352211e146101de57806370a08231146101f157600080fd5b806301ffc9a71461011b57806306fdde0314610143578063081812fc14610158578063095ea7b314610183575b600080fd5b61012e610129366004611801565b6102dd565b60405190151581526020015b60405180910390f35b61014b61032f565b60405161013a9190611876565b61016b610166366004611889565b6103c1565b6040516001600160a01b03909116815260200161013a565b6101966101913660046118be565b61044e565b005b6101966101a63660046118e8565b610564565b6101be6101b9366004611889565b610595565b60405161013a9190611924565b6101966101d93660046118e8565b61067b565b61016b6101ec366004611889565b610696565b6102046101ff366004611962565b61070d565b60405190815260200161013a565b610196610220366004611889565b610793565b60075461016b906001600160a01b031681565b61014b6108d8565b61020461024e366004611a09565b6108e7565b610196610261366004611a6b565b610a62565b61026e610a71565b60405161013a9190611aa7565b610196610289366004611b26565b610cfc565b61014b61029c366004611889565b610d34565b61012e6102af366004611ba2565b6001600160a01b03918216600090815260056020908152604080832093909416825291909152205460ff1690565b60006001600160e01b031982166380ac58cd60e01b148061030e57506001600160e01b03198216635b5e139f60e01b145b8061032957506301ffc9a760e01b6001600160e01b03198316145b92915050565b60606000805461033e90611bcc565b80601f016020809104026020016040519081016040528092919081815260200182805461036a90611bcc565b80156103b75780601f1061038c576101008083540402835291602001916103b7565b820191906000526020600020905b81548152906001019060200180831161039a57829003601f168201915b5050505050905090565b60006103cc82610eab565b6104325760405162461bcd60e51b815260206004820152602c60248201527f4552433732313a20617070726f76656420717565727920666f72206e6f6e657860448201526b34b9ba32b73a103a37b5b2b760a11b60648201526084015b60405180910390fd5b506000908152600460205260409020546001600160a01b031690565b600061045982610696565b9050806001600160a01b0316836001600160a01b031614156104c75760405162461bcd60e51b815260206004820152602160248201527f4552433732313a20617070726f76616c20746f2063757272656e74206f776e656044820152603960f91b6064820152608401610429565b336001600160a01b03821614806104e357506104e381336102af565b6105555760405162461bcd60e51b815260206004820152603860248201527f4552433732313a20617070726f76652063616c6c6572206973206e6f74206f7760448201527f6e6572206e6f7220617070726f76656420666f7220616c6c00000000000000006064820152608401610429565b61055f8383610ec8565b505050565b61056e3382610f36565b61058a5760405162461bcd60e51b815260040161042990611c01565b61055f83838361101f565b60408051608081018252600080825260208201819052918101829052606081019190915260008281526009602052604090206002015482906001600160a01b031661061c5760405162461bcd60e51b8152602060048201526017602482015276151bdad95b881a5908191bd95cc81b9bdd08195e1a5cdd604a1b6044820152606401610429565b60008381526009602090815260409182902082516080810184528154815260018201546001600160a01b039081169382019390935260029091015491821692810192909252600160a01b900460ff161515606082015291505b50919050565b61055f83838360405180602001604052806000815250610cfc565b6000818152600260205260408120546001600160a01b0316806103295760405162461bcd60e51b815260206004820152602960248201527f4552433732313a206f776e657220717565727920666f72206e6f6e657869737460448201526832b73a103a37b5b2b760b91b6064820152608401610429565b60006001600160a01b0382166107775760405162461bcd60e51b815260206004820152602960248201527f4552433732313a2061646472657373207a65726f206973206e6f7420612076616044820152683634b21037bbb732b960b91b6064820152608401610429565b506001600160a01b031660009081526003602052604090205490565b60008181526009602052604090206002015481906001600160a01b03166107f65760405162461bcd60e51b8152602060048201526017602482015276151bdad95b881a5908191bd95cc81b9bdd08195e1a5cdd604a1b6044820152606401610429565b6000828152600960205260409020600201546001600160a01b0316331461084f5760405162461bcd60e51b815260206004820152600d60248201526c139bdd081c9958da5c1a595b9d609a1b6044820152606401610429565b61085a30338461101f565b60008281526009602090815260409182902060028101805460ff60a01b1916600160a01b17905560019081015483516001600160a01b03909116815233928101929092529181019190915282907f2ee8cc1dfb08c0fb2e84562f1e28db81bf649fb8fd79673b30e1e9a0246c760c9060600160405180910390a25050565b60606001805461033e90611bcc565b6000336001600160a01b038316141561094c5760405162461bcd60e51b815260206004820152602160248201527f53656e64657220616e6420726563697069656e742063616e6e6f74206d6174636044820152600d60fb1b6064820152608401610429565b61095a600880546001019055565b600061096560085490565b905061097133826111bb565b61097b81856112ee565b604080516080810182528281523360208083018281526001600160a01b038881168587019081526000606087018181528982526009909552969096209451855590516001850180546001600160a01b0319169183169190911790559351600290930180549151939094166001600160a81b031990911617600160a01b9215159290920291909117909155610a1090308361101f565b604080513381526001600160a01b0385166020820152600081830152905182917f2ee8cc1dfb08c0fb2e84562f1e28db81bf649fb8fd79673b30e1e9a0246c760c919081900360600190a29392505050565b610a6d338383611379565b5050565b60606000610a7e60085490565b90506000805b82811015610b14573360096000610a9c846001611c68565b81526020810191909152604001600020600101546001600160a01b03161480610aef57503360096000610ad0846001611c68565b81526020810191909152604001600020600201546001600160a01b0316145b15610b025781610afe81611c80565b9250505b80610b0c81611c80565b915050610a84565b5080610b6c576040805160008082526020820190925290610b64565b604080516080810182526000808252602080830182905292820181905260608201528252600019909201910181610b305790505b509250505090565b60008167ffffffffffffffff811115610b8757610b8761197d565b604051908082528060200260200182016040528015610bd957816020015b604080516080810182526000808252602080830182905292820181905260608201528252600019909201910181610ba55790505b5090506000805b84811015610cf2573360096000610bf8846001611c68565b81526020810191909152604001600020600101546001600160a01b03161480610c4b57503360096000610c2c846001611c68565b81526020810191909152604001600020600201546001600160a01b0316145b15610ce05760096000610c5f836001611c68565b8152602080820192909252604090810160002081516080810183528154815260018201546001600160a01b039081169482019490945260029091015492831691810191909152600160a01b90910460ff16151560608201528383610cc281611c80565b945081518110610cd457610cd4611c9b565b60200260200101819052505b80610cea81611c80565b915050610be0565b5090949350505050565b610d063383610f36565b610d225760405162461bcd60e51b815260040161042990611c01565b610d2e84848484611448565b50505050565b6060610d3f82610eab565b610da55760405162461bcd60e51b815260206004820152603160248201527f45524337323155524953746f726167653a2055524920717565727920666f72206044820152703737b732bc34b9ba32b73a103a37b5b2b760791b6064820152608401610429565b60008281526006602052604081208054610dbe90611bcc565b80601f0160208091040260200160405190810160405280929190818152602001828054610dea90611bcc565b8015610e375780601f10610e0c57610100808354040283529160200191610e37565b820191906000526020600020905b815481529060010190602001808311610e1a57829003601f168201915b505050505090506000610e5560408051602081019091526000815290565b9050805160001415610e68575092915050565b815115610e9a578082604051602001610e82929190611cb1565b60405160208183030381529060405292505050919050565b610ea38461147b565b949350505050565b6000908152600260205260409020546001600160a01b0316151590565b600081815260046020526040902080546001600160a01b0319166001600160a01b0384169081179091558190610efd82610696565b6001600160a01b03167f8c5be1e5ebec7d5bd14f71427d1e84f3dd0314c0f7b2291e5b200ac8c7c3b92560405160405180910390a45050565b6000610f4182610eab565b610fa25760405162461bcd60e51b815260206004820152602c60248201527f4552433732313a206f70657261746f7220717565727920666f72206e6f6e657860448201526b34b9ba32b73a103a37b5b2b760a11b6064820152608401610429565b6000610fad83610696565b9050806001600160a01b0316846001600160a01b03161480610ff457506001600160a01b0380821660009081526005602090815260408083209388168352929052205460ff165b80610ea35750836001600160a01b031661100d846103c1565b6001600160a01b031614949350505050565b826001600160a01b031661103282610696565b6001600160a01b0316146110965760405162461bcd60e51b815260206004820152602560248201527f4552433732313a207472616e736665722066726f6d20696e636f72726563742060448201526437bbb732b960d91b6064820152608401610429565b6001600160a01b0382166110f85760405162461bcd60e51b8152602060048201526024808201527f4552433732313a207472616e7366657220746f20746865207a65726f206164646044820152637265737360e01b6064820152608401610429565b611103600082610ec8565b6001600160a01b038316600090815260036020526040812080546001929061112c908490611ce0565b90915550506001600160a01b038216600090815260036020526040812080546001929061115a908490611c68565b909155505060008181526002602052604080822080546001600160a01b0319166001600160a01b0386811691821790925591518493918716917fddf252ad1be2c89b69c2b068fc378daa952ba7f163c4a11628f55a4df523b3ef91a4505050565b6001600160a01b0382166112115760405162461bcd60e51b815260206004820181905260248201527f4552433732313a206d696e7420746f20746865207a65726f20616464726573736044820152606401610429565b61121a81610eab565b156112675760405162461bcd60e51b815260206004820152601c60248201527f4552433732313a20746f6b656e20616c7265616479206d696e746564000000006044820152606401610429565b6001600160a01b0382166000908152600360205260408120805460019290611290908490611c68565b909155505060008181526002602052604080822080546001600160a01b0319166001600160a01b03861690811790915590518392907fddf252ad1be2c89b69c2b068fc378daa952ba7f163c4a11628f55a4df523b3ef908290a45050565b6112f782610eab565b61135a5760405162461bcd60e51b815260206004820152602e60248201527f45524337323155524953746f726167653a2055524920736574206f66206e6f6e60448201526d32bc34b9ba32b73a103a37b5b2b760911b6064820152608401610429565b6000828152600660209081526040909120825161055f9284019061174f565b816001600160a01b0316836001600160a01b031614156113db5760405162461bcd60e51b815260206004820152601960248201527f4552433732313a20617070726f766520746f2063616c6c6572000000000000006044820152606401610429565b6001600160a01b03838116600081815260056020908152604080832094871680845294825291829020805460ff191686151590811790915591519182527f17307eab39ab6107e8899845ad3d59bd9653f200f220920489ca2b5937696c31910160405180910390a3505050565b61145384848461101f565b61145f84848484611553565b610d2e5760405162461bcd60e51b815260040161042990611cf7565b606061148682610eab565b6114ea5760405162461bcd60e51b815260206004820152602f60248201527f4552433732314d657461646174613a2055524920717565727920666f72206e6f60448201526e3732bc34b9ba32b73a103a37b5b2b760891b6064820152608401610429565b600061150160408051602081019091526000815290565b90506000815111611521576040518060200160405280600081525061154c565b8061152b84611651565b60405160200161153c929190611cb1565b6040516020818303038152906040525b9392505050565b60006001600160a01b0384163b1561164657604051630a85bd0160e11b81526001600160a01b0385169063150b7a0290611597903390899088908890600401611d49565b6020604051808303816000875af19250505080156115d2575060408051601f3d908101601f191682019092526115cf91810190611d86565b60015b61162c573d808015611600576040519150601f19603f3d011682016040523d82523d6000602084013e611605565b606091505b5080516116245760405162461bcd60e51b815260040161042990611cf7565b805181602001fd5b6001600160e01b031916630a85bd0160e11b149050610ea3565b506001949350505050565b6060816116755750506040805180820190915260018152600360fc1b602082015290565b8160005b811561169f578061168981611c80565b91506116989050600a83611db9565b9150611679565b60008167ffffffffffffffff8111156116ba576116ba61197d565b6040519080825280601f01601f1916602001820160405280156116e4576020820181803683370190505b5090505b8415610ea3576116f9600183611ce0565b9150611706600a86611dcd565b611711906030611c68565b60f81b81838151811061172657611726611c9b565b60200101906001600160f81b031916908160001a905350611748600a86611db9565b94506116e8565b82805461175b90611bcc565b90600052602060002090601f01602090048101928261177d57600085556117c3565b82601f1061179657805160ff19168380011785556117c3565b828001600101855582156117c3579182015b828111156117c35782518255916020019190600101906117a8565b506117cf9291506117d3565b5090565b5b808211156117cf57600081556001016117d4565b6001600160e01b0319811681146117fe57600080fd5b50565b60006020828403121561181357600080fd5b813561154c816117e8565b60005b83811015611839578181015183820152602001611821565b83811115610d2e5750506000910152565b6000815180845261186281602086016020860161181e565b601f01601f19169290920160200192915050565b60208152600061154c602083018461184a565b60006020828403121561189b57600080fd5b5035919050565b80356001600160a01b03811681146118b957600080fd5b919050565b600080604083850312156118d157600080fd5b6118da836118a2565b946020939093013593505050565b6000806000606084860312156118fd57600080fd5b611906846118a2565b9250611914602085016118a2565b9150604084013590509250925092565b815181526020808301516001600160a01b03908116918301919091526040808401519091169082015260608083015115159082015260808101610329565b60006020828403121561197457600080fd5b61154c826118a2565b634e487b7160e01b600052604160045260246000fd5b600067ffffffffffffffff808411156119ae576119ae61197d565b604051601f8501601f19908116603f011681019082821181831017156119d6576119d661197d565b816040528093508581528686860111156119ef57600080fd5b858560208301376000602087830101525050509392505050565b60008060408385031215611a1c57600080fd5b823567ffffffffffffffff811115611a3357600080fd5b8301601f81018513611a4457600080fd5b611a5385823560208401611993565b925050611a62602084016118a2565b90509250929050565b60008060408385031215611a7e57600080fd5b611a87836118a2565b915060208301358015158114611a9c57600080fd5b809150509250929050565b6020808252825182820181905260009190848201906040850190845b81811015611b1a57611b07838551805182526020808201516001600160a01b0390811691840191909152604080830151909116908301526060908101511515910152565b9284019260809290920191600101611ac3565b50909695505050505050565b60008060008060808587031215611b3c57600080fd5b611b45856118a2565b9350611b53602086016118a2565b925060408501359150606085013567ffffffffffffffff811115611b7657600080fd5b8501601f81018713611b8757600080fd5b611b9687823560208401611993565b91505092959194509250565b60008060408385031215611bb557600080fd5b611bbe836118a2565b9150611a62602084016118a2565b600181811c90821680611be057607f821691505b6020821081141561067557634e487b7160e01b600052602260045260246000fd5b60208082526031908201527f4552433732313a207472616e736665722063616c6c6572206973206e6f74206f6040820152701ddb995c881b9bdc88185c1c1c9bdd9959607a1b606082015260800190565b634e487b7160e01b600052601160045260246000fd5b60008219821115611c7b57611c7b611c52565b500190565b6000600019821415611c9457611c94611c52565b5060010190565b634e487b7160e01b600052603260045260246000fd5b60008351611cc381846020880161181e565b835190830190611cd781836020880161181e565b01949350505050565b600082821015611cf257611cf2611c52565b500390565b60208082526032908201527f4552433732313a207472616e7366657220746f206e6f6e20455243373231526560408201527131b2b4bb32b91034b6b83632b6b2b73a32b960711b606082015260800190565b6001600160a01b0385811682528416602082015260408101839052608060608201819052600090611d7c9083018461184a565b9695505050505050565b600060208284031215611d9857600080fd5b815161154c816117e8565b634e487b7160e01b600052601260045260246000fd5b600082611dc857611dc8611da3565b500490565b600082611ddc57611ddc611da3565b50069056fea26469706673582212200dd1deb4097639353c1647f85a7a7a489b44293f4ffaa1db94af8e93a757764f64736f6c634300080a0033",
    "linkReferences": {}
  }
}